:020000040800F2
:100000000006002001010008D5140008DB130008D9
:10001000D1140008AB020008E1170008000000003E
:1000200000000000000000000000000005160008AD
:10003000AF02000800000000D914000807160008ED
:100040001B0100081B0100081B0100081B01000820
:100050001B0100081B0100081B0100081B01000810
:100060001B0100081B0100081B0100081B01000800
:100070001B0100081B0100081B0100081B010008F0
:100080001B0100081B0100081B0100081B010008E0
:100090001B0100081B0100081B0100081B010008D0
:1000A0001B0100081B0100081B0100081B010008C0
:1000B0001B0100081B0100081B0100081B010008B0
:1000C0001B0100081B0100081B0100081B010008A0
:1000D0001B0100081B0100081B0100081B01000890
:1000E0001B0100081B0100081B010008DFF80CD0F1
:1000F00000F0BAF8004800479961000800060020A7
:100100000648804706480047FEE7FEE7FEE7FEE7B1
:10011000FEE7FEE7FEE7FEE7FEE7FEE775160008EE
:10012000ED000008202A04DB203A21FA02F0002129
:10013000704721FA02F3D040C2F1200291400843F7
:100140001946704740EA01039B0703D009E008C93C
:10015000121F08C0042AFAD203E011F8013B00F88C
:10016000013B521EF9D27047D2B201E000F8012BD8
:10017000491EFBD270470022F6E710B513460A4627
:1001800004461946FFF7F0FF204610BDCAB2401ED4
:1001900010F8011F8A4202D00029F9D100207047CF
:1001A000421C10F8011B0029FBD1801A704730B5A2
:1001B00004460020034600E05B1C934203D2E05C4F
:1001C000CD5C401BF8D030BD30B503461D783DB145
:1001D0000A4612F8014B1CB1AC42FAD15B1CF5E7A0
:1001E000181A30BD30B50546002008E00A4602E086
:1001F000A34207D0521C1378002BF9D1401C2C5C71
:10020000002CF3D130BD2DE9F05F05460020924669
:100210009B4688460646814640241BE028464146C8
:1002200047462246FFF77EFF53465A46C01A914181
:1002300010D311461846224600F028F82D1A67EB15
:1002400001084F4622460120002100F01FF817EB5D
:1002500000094E41201EA4F10104DFDC484631466E
:100260002A464346BDE8F09F064C074D06E0E0688D
:1002700040F0010394E8070098471034AC42F6D3ED
:10028000FFF738FFF064000810650008202A04DB3F
:10029000203A00FA02F1002070479140C2F1200399
:1002A00020FA03F319439040704700BFFEE7704700
:1002B00072B600BFFEE7000070B5044600F0A6F974
:1002C00006462546681C10B104480078054400BF66
:1002D00000F09CF9801BA842FAD370BD18000020E2
:1002E0002DE9F8470346002294466EE14FF00108DD
:1002F00008FA02F4D1F8008008EA0400A0427DD197
:10030000DFF8DCA2D1F80480A8EB0A09D0453AD086
:1003100014DCB8F1030F50D009DCB8F1000F31D074
:10032000B8F1010F1CD0B8F1020F49D120E0B8F1AB
:10033000110F18D0B8F1120F42D11EE0B9F5881F85
:1003400025D006DCB9F5803F20D0B9F5801F37D124
:100350001AE0B9F5001F18D0B9F5041F30D117E025
:10036000D1F80CC02DE0D1F80C8008F1040C28E085
:10037000D1F80C8008F1080C23E0D1F80C8008F1CA
:100380000C0C1EE000BF00BF00BF00BF00BF00BFDD
:10039000D1F80880B8F1000F02D14FF0040C0BE047
:1003A000D1F80880B8F1010F03D14FF0080C1C619F
:1003B00002E04FF0080C5C6103E04FF0000C00E03D
:1003C00000BF00BFFF2801D8984601E003F10408F0
:1003D0004646FF2802D84FEA820803E0A2F1080847
:1003E0004FEA88084746D6F800804FF00F0909FA0F
:1003F00007F928EA09080CFA07F900E088E048EA5A
:100400000908C6F80080D1F8048008F08058B8F1D7
:10041000805F7DD100BFDFF8CC81D8F8188048F02C
:100420000108DFF8C091C9F81880C846D8F81880CC
:1004300008F00108CDF8008000BF00BF4FEAB938CE
:100440004FEA920958F829504FEA82784FEA187912
:100450004FF00F0808FA09F825EA0805DFF8888147
:10046000434502D14FF0000816E0DFF88081434594
:1004700002D14FF001080FE0DFF87481434502D14B
:100480004FF0020808E0DFF86C81434502D14FF0DD
:10049000030801E04FF004084FEA82794FEA197926
:1004A00008FA09F848EA0505DFF84C814FEA920995
:1004B00048F82950D1F8048008F48038B8F5803F16
:1004C0000AD1DFF83881D8F8008048EA0008DFF860
:1004D0002C91C9F8008009E0DFF82081D8F800806D
:1004E00028EA0008DFF81491C9F80080D1F80480E8
:1004F00008F40038B8F5003F10D1DFF8008108F1AA
:100500000408D8F8008048EA0008DFF8F09000E01E
:100510005AE009F10409C9F800800DE0DFF8DC8039
:1005200008F10408D8F8008028EA0008DFF8CC9029
:1005300009F10409C9F80080D1F8048008F4801892
:10054000B8F5801F0ED1DFF8B48008F10808D8F89C
:10055000008048EA0008DFF8A49009F10809C9F80A
:1005600000800DE0DFF8948008F10808D8F80080DA
:1005700028EA0008DFF8849009F10809C9F800802A
:10058000D1F8048008F40018B8F5001F0ED1DFF888
:100590006C8008F10C08D8F8008048EA0008DFF801
:1005A0005C9009F10C09C9F800800DE0DFF84C807F
:1005B00008F10C08D8F8008028EA0008DFF83C9021
:1005C00009F10C09C9F80080521CD1F8008028FA02
:1005D00002F8B8F1000F7FF489AEBDE8F88700009B
:1005E000000011100010024000080140000C014002
:1005F00000100140001401400800014000040140C7
:100600000AB1016101E00B04036170470148006811
:100610007047000010000020034800680349097873
:1006200008440149086070471000002018000020AD
:1006300010B50848006840F0100006490860032023
:1006400000F098F8002000F007F800F02BF80020E8
:1006500010BD00000020024070B504460E4800782E
:100660004FF47A71B1FBF0F00C490968B1FBF0F579
:10067000284600F0B2FD08B1012070BD102C07D251
:1006800000222146501E00F037F80548046001E0C2
:100690000120F2E70020F0E7180000201C000020F5
:1006A0001400002008B500BF1148806940F0010027
:1006B0000F4988610846806900F00100009000BF82
:1006C00000BF00BF0846C06940F08050C8610846BE
:1006D000C06900F08050009000BF00BF00BF054916
:1006E000486820F0E06040F00070486000BF08BD3E
:1006F00000100240000001402DE9F05F80460D46E9
:100700001646002701F020FA074639462A463346A6
:1007100001F00700C0F1070ABAF1040F02D94FF047
:10072000040A01E0C0F1070AD14600F1040ABAF157
:10073000070F02D24FF0000A01E0A0F1030AD446ED
:100740004FF0010A0AFA09FAAAF1010A0AEA020AB2
:100750000AFA0CFA4FF0010B0BFA0CFBABF1010B90
:100760000BEA030B4AEA0B042146404601F0F4F978
:10077000BDE8F09F00BF00F00702064B19684FF676
:10078000FF031940044B0B4343EA0221014B19605C
:1007900000BF70470CED00E00000FA0570B504469C
:1007A0000D460CB9012070BD5A48006800F00700E2
:1007B000A8420ED25748006820F007002843554948
:1007C00008600846006800F00700A84201D0012038
:1007D000E9E7207800F0020002281DD1207800F01F
:1007E0000400042805D14C48406840F4E0604A49C0
:1007F0004860207800F00800082805D14648406885
:1008000040F46050444948604348406820F0F0009C
:10081000A168084340494860207800F0010078B39F
:100820006068012806D13C48006800F4003090B9A7
:100830000120B8E76068022806D13748006800F058
:10084000007040B90120AEE73348006800F00200B4
:1008500008B90120A7E73048406820F0030061682C
:1008600008432D494860FFF7D1FE064609E0FFF72F
:10087000CDFE801B41F28831884202D9032092E7E5
:1008800007E02548406800F00C006168B0EB810F7C
:10089000EDD12048006800F00700A8420ED91D489D
:1008A000006820F0070028431A49086008460068DD
:1008B00000F00700A84201D0012074E7207800F082
:1008C0000400042807D11448406820F4E060E1687F
:1008D000084311494860207800F00800082808D132
:1008E0000D48406820F46050216940EAC1000A497F
:1008F000486000F03FF808494968C1F30311074A0E
:10090000515CC8400649086006480068FFF7A4FE2D
:10091000002048E70020024000100240A0620008CA
:100920001C000020140000200148006870470000EF
:100930001C00002000B5FFF7F7FF04494968C1F328
:100940000221034A515CC84000BD00000010024073
:10095000B062000800B5FFF7E7FF04494968C1F33A
:10096000C221034A515CC84000BD00000010024093
:10097000B0620008F0B585B00FF26C0C9CE8E01096
:1009800001A8A0E8E0101CA52D6800950021002218
:10099000002300240020194D696801F00C05F5B111
:1009A000042D02D0082D19D101E0154819E001AD40
:1009B000C1F38346AC5D01F4803555B10F4D6D68D0
:1009C000C5F340451DF805200D4D6543B5FBF2F319
:1009D00002E00C4D04FB05F3184602E000BF084896
:1009E00000BF00BF05B0F0BD0203040506070809FB
:1009F0000A0B0C0D0E0F1010010200000010024037
:100A000000127A0000093D00F8B504460CB9012037
:100A1000F8BD207800F00100002878D0F848406840
:100A200000F00C0004280CD0F548406800F00C00E1
:100A3000082811D1F248406800F48030B0F5803FBA
:100A40000AD1EF48006800F4003000285FD06068E9
:100A500000285CD10120DBE700BF6068B0F5803F73
:100A600006D1E748006840F48030E549086028E096
:100A7000606858B9E248006820F48030E0490860B6
:100A80000846006820F4802008601AE06068B0F52D
:100A9000A02F0BD1DA48006840F48020D8490860C4
:100AA0000846006840F4803008600AE0D4480068D6
:100AB00020F48030D24908600846006820F4802085
:100AC000086000BF606888B1FFF7A0FD054606E03A
:100AD000FFF79CFD401B642801D9032098E7C84814
:100AE000006800F400300028F2D010E0FFF78EFD1F
:100AF000054606E0FFF78AFD401B642801D9032064
:100B000086E7BF48006800F400300028F2D1207862
:100B100000F00200022857D1B948406800F00C00EC
:100B200050B1B748406800F00C00082818D1B4480C
:100B3000406800F4803098B9B148006800F00200C5
:100B400020B12069012801D0012061E7AC4800688C
:100B500020F0F800616940EAC100A949086033E06B
:100B60002069E8B10120A7490860FFF74FFD05465D
:100B700006E0FFF74BFD401B022801D9032047E7A1
:100B80009F48006800F002000028F2D09C480068EE
:100B900020F0F800616940EAC1009949086013E05B
:100BA000002098490860FFF731FD054606E0FFF791
:100BB0002DFD401B022801D9032029E79048006839
:100BC00000F002000028F2D1207800F00800082888
:100BD0002DD1A069B8B101208B490860FFF716FD3F
:100BE000054606E0FFF712FD401B022801D903204D
:100BF0000EE78348406A00F002000028F2D001208E
:100C000000F06CFC13E000207F490860FFF7FEFC59
:100C1000054606E0FFF7FAFC401B022801D9032035
:100C2000F6E67748406A00F002000028F2D120780A
:100C300000F00400042873D100277148C06900F057
:100C4000805070B900BF6E48C06940F080506C4958
:100C5000C8610846C06900F08050009000BF00BF26
:100C600001276A48006800F48070B0B967480068DE
:100C700040F4807065490860FFF7C8FC054606E04F
:100C8000FFF7C4FC401B642801D90320C0E65F487D
:100C9000006800F480700028F2D000BFE0680128EE
:100CA00006D15748006A40F001005549086227E024
:100CB000E06858B95248006A20F0010050490862C3
:100CC0000846006A20F00400086219E0E068052880
:100CD0000BD14B48006A40F00400494908620846BD
:100CE000006A40F0010008620AE04548006A20F00E
:100CF0000100434908620846006A20F004000862C7
:100D000000BFE068A0B1FFF781FC054609E0FFF7EE
:100D10007DFC401B41F28831884202D9032077E6EE
:100D200022E03748006A00F002000028EFD012E00D
:100D3000FFF76CFC054608E0FFF768FC401B41F23A
:100D40008831884201D9032062E62D48006A00F00C
:100D500002000028F0D1012F05D12948C06920F0F8
:100D600080502749C86100BFE069C8B32448406883
:100D700000F00C00082860D0E069022848D100206B
:100D800020490866FFF742FC054606E0FFF73EFCF7
:100D9000401B022801D903203AE61948006800F0F8
:100DA00000700028F2D1206AB0F5803F07D11448C6
:100DB000406820F40030A168084311494860D4E934
:100DC000080108430E49496821F4741108430C498D
:100DD000486001200B490866FFF718FC054607E04C
:100DE0003DE0FFF713FC401B022801D903200FE66A
:100DF0000348006800F000700028F2D02FE00000E7
:100E00000010024000004242800442420070004054
:100E1000002014490866FFF7F9FB054606E0FFF7D6
:100E2000F5FB401B022801D90320F1E50E480068BC
:100E300000F000700028F2D111E0E069012800D133
:100E4000E6E50948466806F48031206A814204D10B
:100E500006F47011606A814201D00120D8E50020BB
:100E6000D6E50000000042420010024010B50446E2
:100E70000CB9012010BD606A38B96068B0F5827F96
:100E800000D105E00021E16102E000212161616102
:100E90000021A16294F8510028B9002084F8500084
:100EA000204600F043F8022084F8510020680068D2
:100EB00020F0400021680860A08800F48270218939
:100EC00001F404410843A18901F400610843217C35
:100ED00001F002010843217D01F001010843218B4B
:100EE00001F400710843217F01F0380108432021FB
:100EF000095D01F080010843218D01F40051084390
:100F0000216808600421A06901EA10402168486056
:100F10002068C06920F400602168C8610020606515
:100F2000012084F851000020A4E7000010B586B02D
:100F3000044600200290039004900590194920680F
:100F400088422DD100BF1848806940F4805016496E
:100F500088610846806900F48050019000BF00BF9E
:100F600000BF0846806940F0040088610846806937
:100F700000F00400019000BF00BFA02002900220FA
:100F800003900320059002A90848FFF7A9F9402023
:100F9000029000200390049002A90448FFF7A0F9F2
:100FA00006B010BD003001400010024000080140B2
:100FB0002DE9FF5F0446884691461D460E9E01209E
:100FC00002900020019000BF94F85000012803D146
:100FD000022004B0BDE8F09F012084F8500000BF5B
:100FE000FFF714FB074694F851B060680390AA46D7
:100FF000BBF1010F0BD00398B0F5827F04D1A0683C
:1010000010B9BBF1040F02D002200190DBE0B8F16F
:10101000000F03D0B9F1000F00D015B901200190E5
:10102000D1E094F85100042802D0052084F8510042
:1010300000206065C4F83890E587A587C4F8308043
:10104000E586A586206460642068006800F04000A2
:10105000402805D02068006840F040002168086002
:10106000E068B0F5006F4AD1606810B1BAF1010FC5
:1010700009D1206B00882168C860206B801C206328
:10108000E08E401EE08633E02068806800F00200B9
:10109000022810D1E08E70B1029801280BD1206B8C
:1010A00000882168C860206B801C2063E08E401E91
:1010B000E086002002902068806800F0010068B19E
:1010C000E08F58B12068C068A16B0880A06B801CBD
:1010D000A063E08F401EE08701200290FFF796FAA0
:1010E000C01BB04204D3701C10B1032001906AE011
:1010F000E08E0028C8D1E08F0028C5D14AE06068A2
:1011000010B1BAF1010F09D1206B00782168087382
:10111000206B401C2063E08E401EE08634E0206897
:10112000806800F00200022810D1E08E70B10298B1
:1011300001280BD1206B007821680873206B401CBC
:101140002063E08E401EE0860020029020688068C8
:1011500000F0010068B1E08F58B12068C068A16B51
:101160000870A06B401CA063E08F401EE087012048
:101170000290FFF74BFAC01BB04201D3701C00B9BC
:1011800016B9032001901EE0E08E0028C7D1E08F41
:101190000028C4D13A463146204600F0B3F920B1C8
:1011A00001200190202060650DE0A06850B900BFCB
:1011B000002000902068C06800902068806800903F
:1011C00000BF00BF00BF012084F8510000BF002015
:1011D00084F8500000BF0198FBE670B50446254630
:1011E000681EB0F1807F01D301200FE0681E4FF030
:1011F000E02148610F214FF0FF3000F0ADFC0020EE
:101200004FF0E021886107200861002070BD10B513
:1012100004460CB9012010BDA06900B100E000BF78
:1012200094F83D0028B9002084F83C00204600F0E6
:1012300027F8242084F83D002068C06820F400507E
:101240002168C860204600F017FA2068006920F481
:101250009040216808612068406920F02A002168D8
:1012600048612068C06840F400502168C8600020D0
:101270002064202084F83D0084F83E000020CAE766
:1012800010B586B0044600200290039004900590AB
:101290001A49206888422ED100BF1948806940F45D
:1012A0008040174988610846806900F480400190B9
:1012B00000BF00BF00BF0846806940F0040088619D
:1012C0000846806900F00400019000BF00BF481587
:1012D0000290022003900320059002A90948FEF71E
:1012E000FFFF4FF48060029000200390049002A959
:1012F0000448FEF7F5FF06B010BD000000380140BD
:1013000000100240000801402DE9F84F04460E4647
:10131000174699464FF0000A94F83D0020285AD10C
:1013200006B117B90120BDE8F88F00BF94F83C0062
:10133000012801D10220F6E7012084F83C0000BF1B
:1013400000202064212084F83D00FFF75FF98246E9
:10135000A784E784A068B0F5805F04D1206910B944
:101360000025B04602E035464FF0000800BF0020DF
:1013700084F83C0000BF1BE0534600228021204639
:10138000CDF8009000F0F6F908B10320CBE745B99D
:10139000B8F80000C0F308002168486008F10208AE
:1013A00003E02878216848606D1CE08C401EE084D2
:1013B000E08C0028E0D15346002240212046CDF8A1
:1013C000009000F0D7F908B10320ACE7202084F8A2
:1013D0003D000020A7E70220A5E700BFFEE70000D0
:1013E00000B585B00020019002900390049000BFEA
:1013F0001648806940F020001449886108468069D9
:1014000000F02000009000BF00BF00BF08468069C8
:1014100040F0040088610846806900F004000090F4
:1014200000BF00BF012204210948FFF7E9F80420AA
:10143000019001200290002003900320049001A954
:101440000348FEF74DFF05B000BD0000001002404C
:101450000008014010B50E480E4908604FF4827034
:10146000486000210B488160C160016141614FF417
:10147000007181610821C1610021016241628162C4
:101480000A21C162FFF7F2FC08B1FEF711FF10BD9F
:10149000003001402400002010B50B480B490860C3
:1014A0004FF4E1304860002108488160C16001616B
:1014B0000C21416100218161C161FFF7A8FE08B1E3
:1014C000FEF7F6FE10BD0000003801407C00002051
:1014D00000BFFEE700BFFEE77047000008B50849FF
:1014E0000968C9084FF47A72B1FBF2F141430091E7
:1014F00000BF00BF00994A1E00920029F9D108BD23
:101500001C000020F8B504460D4616462B46002266
:1015100080212046009600F009F828B1606D40F067
:10152000200060650320F8BD0020FCE72DE9F84F9E
:1015300004460D4690461E46DDF82890FFF766F8F3
:10154000A0EB0900371AFFF761F882462C480068C3
:10155000C0F3CB307843009045E0701C002842D0A7
:10156000FFF754F8A0EB0A00B84200D2A7BB2068EE
:10157000406820F0E000216848606068B0F5827F34
:101580000DD1A068B0F5004F03D0A068B0F5806F12
:1015900005D12068006820F0400021680860A06A3A
:1015A000B0F5005F0DD100BF2068006820F4005046
:1015B000216808602068006840F4005021680860D5
:1015C00000BF012084F8510000BF002084F85000C3
:1015D00000BF0320BDE8F88FFFE7009800B900279F
:1015E0000098401E0090206880682840A84201D1E1
:1015F000012000E000204045AFD10020EAE70000D4
:101600001C000020704710B5FFF706F810BD00B5AC
:101610008FB0282105A8FEF7AEFD14216846FEF71D
:10162000AAFD0120059000040690002007900120EB
:10163000099002200C90C1030D914FF4E0110E911E
:1016400005A8FFF7E1F908B1FEF732FE0F20009080
:1016500002200190002002904FF48060039000204F
:10166000049002216846FFF799F808B1FEF720FEC2
:101670000FB000BD7047000070B5044621680969CD
:1016800021F44051E2681143226811612269A16886
:101690001143626941EA02052168C96841F20C629E
:1016A000914329432268D1602168496921F440713E
:1016B000A2691143226851612D4A2168914202D1E9
:1016C000FFF748F901E0FFF735F900EBC00101EB46
:1016D000001162689200B1FBF2F100EBC00202EB74
:1016E000001263689B00B2FBF3F26423B2FBF3F2D7
:1016F00002EBC20303EB0212A1EB8201322202EBE6
:1017000001116422B1FBF2F101F0F00100EBC00223
:1017100002EB001263689B00B2FBF3F26423B2FB9E
:10172000F3F201EB021200EBC00101EB0011636860
:101730009B00B1FBF3F100EBC00303EB0013666801
:10174000B600B3FBF6F36426B3FBF6F303EBC30674
:1017500006EB0313A1EB8301322303EB0111642396
:10176000B1FBF3F101F00F0111442268916070BDEB
:10177000003801402DE9F04104460D4617469846D1
:10178000069E21E0701CF8B12EB1FEF73FFFA0EBE2
:101790000800B04218D92068C06820F4D0702168D1
:1017A000C8602068406920F001002168486120205D
:1017B00084F83D0084F83E0000BF002084F83C001F
:1017C00000BF0320BDE8F081206800682840A842DF
:1017D00001D1012000E00020B842D3D00020F1E781
:1017E00000BFFEE710B50446240300F021F900F025
:1017F00015F9002204210C48FEF702FF202000F01A
:10180000F9F8C4F3074000F0F5F8C4F3072000F03E
:10181000F1F8E0B200F0EEF8012204210248FEF7F0
:10182000EFFE00F0FBF810BD0008014010B50022EB
:1018300004210C48FEF7E4FEFF2000F0DBF8012253
:1018400004210848FEF7DCFE00F06EF80649088027
:1018500000F03CF805490860054800F0A3F802488C
:10186000008810BD00080140000000200400002096
:10187000080000202DE9F04106460C4617460022DC
:1018800004211148FEF7BCFE032000F0B3F8C4F3B6
:10189000074000F0AFF8C4F3072000F0ABF8E0B267
:1018A00000F0A8F8002505E0FF2000F0A3F870552F
:1018B000681C85B2BD42F7DB012204210248FEF715
:1018C0009FFEBDE8F08100000008014038B500240B
:1018D00000200090002204211248FEF791FE5A20B9
:1018E00000F088F8002000F085F8002000F082F871
:1018F000842000F07FF8002000F07CF800BF05E0B5
:10190000FF2000F077F80DF80400641C042CF7D3D6
:10191000012204210348FEF773FE0098401CC00812
:1019200038BD00000008014010B500240022042149
:101930000F48FEF765FE902000F05CF8002000F0F4
:1019400059F8002000F056F8002000F053F8FF206E
:1019500000F050F844EA0024FF2000F04BF8044364
:10196000012204210248FEF74BFE204610BD000074
:101970000008014010B50024002204210848FEF7A9
:101980003FFE052000F036F8FF2000F033F8044653
:10199000012204210248FEF733FE204610BD00005C
:1019A0000008014070B505460024002204211048BB
:1019B000FEF726FE4B2000F01DF8002000F01AF87C
:1019C000002000F017F8002000F014F8002000F0CC
:1019D00011F800BF04E0FF2000F00CF82855641C4B
:1019E000082CF8DB012204210148FEF709FE70BD36
:1019F0000008014001B582B0002001900A200123B7
:101A000001AA02A900900448FFF7D2FA08B1FF200A
:101A100001909DF804000EBD2400002010B500BF09
:101A2000FFF7A8FF00F001000028F9D110BD000069
:101A300010B5002204210648FEF7E2FD0620FFF75C
:101A4000D9FF012204210248FEF7DAFD10BD000093
:101A5000000801402DE9F04107460E461446F0B259
:101A6000C0F58075AC4200DC254612E02A463146BE
:101A7000384600F013F8AC4200D10BE02F442E445E
:101A8000601B84B2B4F5807F02DD4FF4807500E006
:101A90002546EBE700BFBDE8F08100002DE9F041ED
:101AA00006460C461746FFF7C3FF002204211148E3
:101AB000FEF7A6FD0220FFF79DFFC4F30740FFF7E6
:101AC00099FFC4F30720FFF795FFE0B2FFF792FFFD
:101AD000002504E0705DFFF78DFF681C85B2BD42F4
:101AE000F8DB012204210348FEF78AFDFFF796FF89
:101AF000BDE8F081000801400FB4054B10B503A903
:101B0000044A029800F04CF810BC5DF814FB000089
:101B1000052000082000002001464FF033324FF02E
:101B2000553000EA5100091A01EA020002EA910365
:101B3000C11801EB111000F00F3101EB112101EB85
:101B4000114101F03F00704702480068C0F30220D5
:101B5000704700000CED00E010B5002804DB0A0718
:101B6000130E054A135406E00A07140E034A00F048
:101B70000F031B1FD45410BD00E400E018ED00E07B
:101B800002E008C8121F08C1002AFAD17047704746
:101B9000002001E001C1121F002AFBD170470000A4
:101BA0002DE9FF4F8DB00F460546002606E025289B
:101BB0000BD0DDE90F1290476D1C761C28780028A9
:101BC000F5D111B03046BDE8F08F0024A246A14601
:101BD0000122EC4900E0044315F8013F203B02FAE2
:101BE00003F00842F7D128782A2810D06FF02F028E
:101BF0002878A0F13001092914D80AEB8A0102EBF8
:101C0000410144F0020400EB010A6D1CF0E701CF32
:101C10005FEA000A03D544F40054CAF1000A44F014
:101C200002046D1C28782E2817D115F8010F44F0F6
:101C300004042A280ED06FF02F022878A0F130017A
:101C400009290AD809EB890102EB410100EB0109DE
:101C50006D1CF2E757F8049B6D1C28786C280FD098
:101C600006DC4C2817D068280DD06A2814D104E06F
:101C7000742810D07A280FD10DE044F400140AE043
:101C800044F4801401E044F440146978814202D1A4
:101C900004F580146D1C6D1C2A786E2A1FD00CDC94
:101CA000632A31D004DC002A8BD0582A11D1A3E05A
:101CB000642A68D0692A0CD165E0732A2ED004DC2E
:101CC0006F2A73D0702A04D19BE0752A6FD0782ACE
:101CD0006ED01046DDE90F129047761C50E1C4F338
:101CE0000250022806D0032809D0042801CF09D0C9
:101CF000066045E101CFF117C0E9006140E101CF85
:101D000006803DE106703BE117F8040B8DF80000FA
:101D100000208DF80100EB46012003E057F804BBDA
:101D20004FF0FF3061074FF0000102D40DE008F1E1
:101D30000101884649450FDA8045F8DB1BF8081099
:101D40000029F4D108E008F1010188468142FADB5C
:101D50001BF808100029F6D1DDE90F23AAEB0800D3
:101D60008146214600F036F9304400EB080604E0D5
:101D7000DDE90F121BF8010B9047B8F10108F7D20B
:101D800021464846F7E00A21C4F302534FF0000B06
:101D90000891022B04D001CFC117032B09D00AE010
:101DA000FF1D27F00707F7E8020108E032E01FE017
:101DB00020E000B2C117042B01D140B2C117031EAD
:101DC00071F1000307DA4FF0000CD0EB0C006CEB64
:101DD00001012D2302E0230504D52B238DF82430A7
:101DE000012303E0E30701D02023F7E7984658E0FA
:101DF0000A2110E010210EE010204FF0000B089097
:101E00000CE010214FF0000B44F004044FF00809DF
:101E1000089103E008214FF0000B0891C4F302532E
:101E2000022B04D001CF0021032B06D006E0FF1DBA
:101E300027F00707F7E8020103E080B2042B00D186
:101E4000C0B24FF0000823072BD5702A07D0DDF869
:101E500020C08CF0100C5CEA0B0C05D00EE0402387
:101E60008DF82430012308E050EA010306D0302326
:101E70008DF824308DF8252002239846DDF820C007
:101E80008CF0080C5CEA0B0C0BD150EA010301D179
:101E9000630706D530238DF824304FF00108A9F1EF
:101EA0000109582A04D038A20B9208AA0A920BE022
:101EB0003AA2F9E75B46089AFEF7A5F90B9B9B5CF3
:101EC0000A9A521E0A92137050EA0102F2D10A983D
:101ED000ADEB000000F1200B600702D524F4803444
:101EE00001E04FF00109D94502DDA9EB0B0000E04C
:101EF000002000EB0B0141440890AAEB010AE0032B
:101F000006D4DDE90F232146504600F063F806446D
:101F10004FF0000908E009A911F80900DDE90F12E6
:101F2000904709F10109761CC145F4DBE0030CD5AB
:101F3000DDE90F232146504600F04CF8064404E04A
:101F4000DDE90F1230209047761C0899481E089052
:101F50000029F5DC08E00A980A990078491C0A91E2
:101F6000DDE90F129047761CBBF10001ABF1010BCC
:101F7000F1DC21465046DDE90F2300F019F8064454
:101F80006D1C1BE6092801003031323334353637F9
:101F900038396162636465660000000030313233B5
:101FA0003435363738394142434445460000000055
:101FB0002DE9F041044600251E461746880404D446
:101FC00005E039462020B0476D1C641EF9D528462F
:101FD000BDE8F0812DE9F041044600251E469046FB
:101FE000C80301D5302700E02027880404D505E088
:101FF00041463846B0476D1C641EF9D52846BDE8F9
:10200000F081000013B50C464FF0FF330122694602
:102010000248FFF779F900981CBD00007C00002001
:102020000246B2FBF1F001FB1020101A704770B5A8
:1020300004460D466119481E2946FFF7F1FF70BDA1
:10204000F8B504460E4670E035E0E16DE06D401CE9
:10205000E065206E401E20664A09606E50F822003E
:1020600001F01F0301229A40104018BB606D084424
:10207000A26E126AB0FBF2F302FB1300306005E0BF
:10208000E06D401CE065206E401E2066D4E916021B
:1020900082420DD0E06D4009626E52F820005C2251
:1020A000125D02F01F0301229A4010400028E7D180
:1020B0000020F8BD00BFD4E916018142C5D1206ED1
:1020C00068B91AA00090616DE06D43184FF40C726E
:1020D00017A11CA0FFF710FD6FF01B00E9E7D4E982
:1020E00015100844A16E096AB0FBF1F201FB120061
:1020F0006065A26E216ED26AD00003F00AFDA06571
:102100000021E165A26ED16A606EFEF734F801230A
:1021100022461649204603F00BFA054625B1204613
:1021200000F02AF82846C4E700BF8DE70000000051
:102130002E2E5C6C6974746C6566735C6C66732EB1
:102140006300000025733A25643A6572726F723A33
:10215000204E6F206D6F726520667265652073700A
:1021600061636520257525730A0000008B21000836
:10217000816E0A6A0266704710B504460021A165A7
:10218000E1652046FFF7F4FF10BD70B502460C462E
:102190001146486D201A8D6E2D6A28448D6E2D6A69
:1021A000B0FBF5F605FB1603886D98420CD95D0966
:1021B000486E50F8250003F01F060125B54028435E
:1021C0005E094D6E45F82600002070BD2DE9FF4FD9
:1021D00087B081461F46DDF850A0DDF85C80DDF851
:1021E00058B00026002427E0A8EB0400082103F0E3
:1021F00090FC064605A9159820443B1BCDE900A09C
:10220000CDE902164846DDE9081200F0C6F8054699
:102210001DB128460BB0BDE8F08F0BEB0401324630
:1022200005A8FDF7C4FF05462DB1002D01DA0120F8
:10223000F0E70220EEE734444445D5D30020E9E737
:1022400070B504460D46A06E2946C2689047064602
:10225000304670BD2DE9FF4705460C4617469846A7
:102260002068401C00283FD02068801C00283BD0FC
:10227000AA6E9169A068FFF7DAFE06460096E36849
:10228000D4E90012A86ED0F808C0E0478146B9F141
:10229000000F03D0484604B0BDE8F087B8F1000F46
:1022A0001DD03946284600F05CF9D4E90012E068F8
:1022B0003346CDE90206CDE900123A460021284610
:1022C000FFF784FF8246BAF1000F01DA5046E2E7D9
:1022D000BAF1000F02D06FF05300DCE700BF2146D7
:1022E000284600F042F900BF0020D4E72DE9FF5F47
:1022F00006460C46DDE90E95DDF84480DDF840A089
:1023000046E02068484538D16068A84235D8606802
:10231000B16E896A0844A8422FD9B06E806A62689B
:10232000AA1A811A404603F0F4FB07466268AA1A0B
:10233000E16888183A465146FDF704FFBA443D4427
:10234000A8EB07086268A91AA06803F0DBFBA0608D
:10235000A068B16E896A88420ED121463046DDE917
:102360000223FFF777FF8346BBF1000F03D05846E7
:1023700004B0BDE8F09F00BF0AE0C4F80090B06E62
:1023800081692846FFF74CFE60600020A06000BF16
:10239000B8F1000FB5D10020EAE72DE9FF4F83B077
:1023A000064688461446DDE910A5DDF84C90DDF8B8
:1023B00048B0B06E006A504505D905EB0900B16E12
:1023C000C969884204D96FF0530007B0BDE8F08FA7
:1023D000A6E04F46B8F1000F2AD0D8F800005045CB
:1023E00026D1D8E901010844A84221D9D8F804002F
:1023F000A84216D8D8E90120AA1A811A384603F053
:1024000088FB0746D8F80420AA1AD8F80C008118CF
:102410003A465846FDF796FEBB443D44A9EB0709F2
:102420007EE0D8F80400411B384603F072FB0746F3
:102430002068504522D1D4E901010844A8421DD9A1
:102440006068A84214D8D4E90120AA1A811A384633
:1024500003F05FFB07466268AA1AE06881183A46F3
:102460005846FDF76FFEBB443D44A9EB070957E012
:102470006068411B384603F04CFB074606988145CF
:1024800022D3B06E4069B5FBF0F100FB1150D8B912
:10249000B06E4069484517D8B06E41693846FFF7BD
:1024A000BFFD07460097B06E5B462A465146D0F8FE
:1024B00004C0E0470190019808B1019885E7BB444A
:1024C0003D44A9EB07092BE0C4F800A0B06E4169B8
:1024D0002846FFF7A5FD6060B26E5169069AA818FC
:1024E000FFF7A5FD0090B06EC169009803F011FBE5
:1024F0006168401A0190B06E816A019803F009FB8F
:10250000A060A0680090E368D4E90012B06ED0F833
:1025100004C0E0470290029808B1029855E700BF56
:10252000B9F1000F7FF455AF00204EE72DE9F041DF
:1025300004460F46154698462946204600F011F8F5
:1025400043462A4639462046FFF784FE064616B122
:102550003046BDE8F081A06E0169884706463046E6
:10256000F7E74FF0FF320A60704770B505460C463A
:10257000AA6E916AFF22E068FDF7F6FD4FF0FF308A
:10258000206070BD70B50B461C46002112E0655CF2
:10259000454005F00F05094E56F8255085EA101004
:1025A000655C80EA251505F00F0556F8255085EA8B
:1025B0001010491C9142EAD370BD00005864000815
:1025C00010B5044661422140481C03F0CCFA401E7D
:1025D00010BD00002DE9FF4F89B01F46DDE916B898
:1025E000DDF86090BBE008A90998FFF729FD0446D3
:1025F0001CB120460DB0BDE8F08FDDE90810FFF7F3
:102600001FFE04462CB104F1540000B999E02046A5
:10261000F0E7BBF1000F06D10898C8F800000020D1
:10262000C9F80000E6E7ABF10100079007A9099897
:1026300000F012F982460798401C07900998806EB6
:10264000C0690799884232D0002525E0012005A9FC
:10265000CDE90075CDE902100798431B00210B9AC4
:102660000998FFF79AFE04460CB12046C2E7012004
:1026700005A9089A0346CDE90025CDE9021009A86D
:1026800007C8FFF733FE04462CB104F1540000B92B
:1026900057E02046AEE76D1C07988542D6D30898D0
:1026A000C8F800000798C9F800000020A2E70AF166
:1026B000010A5046FFF784FF461C0697002536E0C6
:1026C000069803F057FD0690042106AAA800089B6F
:1026D000CDE90030CDE90221012309A807C8FFF7A1
:1026E00005FE0446069802F0C3FC06902CB104F1E6
:1026F000540000B925E020467CE7701EA84215D0A2
:10270000042106AAA800069BCDE90030CDE90221EC
:102710000B4600210B9A0998FFF73FFE04460698E6
:1027200002F0A6FC06900CB1204663E76D1CB54292
:10273000C6D30898C8F80000B000C9F8000000200F
:1027400058E707A0009040F6661206A10AA0089B71
:10275000FFF7D2F9DDE90901FFF703FF00BF42E708
:10276000000000002E2E5C6C6974746C6566735CEE
:102770006C66732E6300000025733A25643A646525
:102780006275673A2042616420626C6F636B2061FE
:1027900074203078257825730A0000002DE9FF4F5A
:1027A00085B08346DDE91478129E46B94FF0FF30BC
:1027B00038600020C8F8000009B0BDE8F08F701E36
:1027C000049004A9584600F047F8044613A9584657
:1027D00000F042F805462BE02046FFF7F1FE611BB2
:1027E0000390481C03F0BFF9401E0290039903F0C8
:1027F00090F98146042108AA4FEA8900089BCDE997
:102800000030CDE902210B465846DDE90612FFF7FC
:10281000C4FD8246089802F02BFC0890BAF1000F24
:1028200001D05046C8E7012000FA09F0241A00BF81
:10283000AC42D1D8089838601398C8F8000000203E
:10284000BAE710B50446206802F012FC2060606808
:1028500002F00EFC606010BD2DE9F04180460D468F
:102860002E68D8F86800C069A0F10807B6FBF7F435
:1028700014B90020BDE8F081601E03F0B6F9801C99
:10288000042101FB1060B0FBF7F4204603F0ADF922
:1028900007FB1461042202FB101028602046E9E7C0
:1028A00010B50446206803F065FC2060606803F002
:1028B00061FC606010BD2DE9FF4F87B083461F4665
:1028C000DDE9149AB9F1000F03D100200BB0BDE887
:1028D000F08FA9F10100069006A95846FFF7BCFF4A
:1028E00005463CE039461698D04706460EB13046BC
:1028F000ECE70DB90020E9E705F00100C0F10204A2
:10290000A00004A90022A300CDE90072CDE90210C5
:102910005846DDE90812FFF740FD0646049802F02C
:10292000A7FB0490059802F0A3FB05900EB130467A
:10293000CCE74FF000080AE004A850F828101698D9
:10294000D04706460EB13046C0E708F10108601EC8
:102950004045F1DC04A951F820702D1B00BFC1E7F0
:102960000146886E006B10B9C86800BF00BF886E52
:10297000406B10B9C86900BF00BF886E806B10B98A
:10298000486E00BF00BF0020704770B505460C467A
:102990002046FEF727FF002070BD2DE9F0410446D8
:1029A0000D4616461F46DDF818801FFA88F2E069CA
:1029B00000FB05613846FFF74DF80020BDE8F081C7
:1029C0002DE9F04104460D4616461F46DDF81880F5
:1029D0001FFA88F2E06900FB05613846FEF74AFFFE
:1029E0000020BDE8F0810146002070472DE9FF4737
:1029F00005460C46002714E007F1010909EBD970E0
:102A00004010A9EB400004EB80012846FFF718FBBB
:102A10008046B8F1000F03D0404604B0BDE8F0870F
:102A20007F1C022FE8DB0020A060042204F10800D4
:102A300000232168CDE90013CDE9020213462A469E
:102A400000212846FFF7A9FC0646A06802F010FB0B
:102A5000A06026B106F1540008B13046DDE7A86E4B
:102A6000406A002808DDAA6E526A521C42F0010139
:102A7000A068FFF7DCFAA0600420E060401F20613E
:102A80000020A082401EA0610146E1610020A075E7
:102A9000E07500BFC1E700002DE9F047A0B0064691
:102AA0000C4617469846B56A2BE005F108008442AB
:102AB00026D0214603F05EF810BBA87901281FD16B
:102AC000286B00F48010D8B1E86AB16E896A884238
:102AD00016D92946304601F0B1FD8246BAF1000F01
:102AE00003D0504620B0BDE8F0872946304601F0BB
:102AF000DBFC8246BAF1000F01D05046F2E700BF7E
:102B00002D68002DD1D12022214618A8FDF71AFBEF
:102B1000A94600BF36E057F8350003F0D4FA40F27A
:102B20000141884203D1A08A401CA08229E057F8C5
:102B3000350003F0C8FA40F2FF41884205D1A08A6F
:102B4000401EA0824FF001091BE057F8350003F04A
:102B5000B5FAB0F5C06F14D107EBC5004068006846
:102B6000A06107EBC50040684168E16157F8350096
:102B700003F074FA00F00100E07504F1180003F0AE
:102B80000EF86D1C4545C6DBB9F1000F25D0A08AB3
:102B900018BB10AA2146304602F052FC054645B14A
:102BA000A81C30B1202218A92046FDF7CBFA2846F0
:102BB00098E7A81C80B19DF8570068B1224610A97B
:102BC000304600F071FD054635B1202218A9204697
:102BD000FDF7B8FA284685E700BFA07D10B9A08AA6
:102BE000FF287CDB1822A8490DA8FDF7ABFA206866
:102BF0000D90E0680E9020690F90E0681190B06E23
:102C0000806C10B1B06E806C01E0B06EC0690838A5
:102C1000129004F1180002F0DDFF0DA8CDE9166056
:102C200016A89A4900220592CDE90621CDE9018234
:102C3000039200970492089021463046D4E903237A
:102C400001F0DCFA054604F1180002F0A8FF65B1B6
:102C500005F11C0008B1383000B972E0202218A933
:102C60002046FDF76FFA28463CE700200A900B90BB
:102C70000C9006F130010AA802F0A0FE06F13C011A
:102C80000AA802F09BFE06F148010AA802F096FE8F
:102C90000A986FF309000A900AA802F073FE30BB8D
:102CA0000AAA2146304601F0F5F8054635B1202242
:102CB00018A92046FDF746FA284613E70AA802F0AD
:102CC0006EFE0AAB724A0DA9304600F002F90546C5
:102CD0006DB105F11C0008B1383008B931E02FE0C2
:102CE000202218A92046FDF72DFA2846FAE60DA95C
:102CF000304600F053F9054665B105F11C0008B1F6
:102D0000383000B91DE0202218A92046FDF71AFA34
:102D10002846E7E60E98E0600F982061D6E90D128C
:102D2000306BC6E91012F063002013901490594ADA
:102D3000159007CA13AB07C3C6E91312B0641AE0B3
:102D400000BF06F110013046FFF70BFCA08A0021FE
:102D500043463A46CDE9004102902146304600F014
:102D600033FA054635B1202218A92046FDF7EAF9C5
:102D70002846B7E600BFB56A5CE005F10800A0424E
:102D800057D018A902F0F6FEB0BB2022214605F16B
:102D90000800FDF7D7F94FF0000A48E057F83A006D
:102DA00003F091F940F2FF4188420CD157F83A0004
:102DB00003F063F9A988884205D14FF0FF30A8607D
:102DC0000146E96031E057F83A0003F07CF940F23F
:102DD000FF41884211D157F83A0003F04EF9A98813
:102DE00088420ADAA888401EA880A87902281CD147
:102DF000A86A401EA86218E01BE057F83A0003F0EA
:102E000062F940F2014188420FD157F83A0003F0CD
:102E100034F9A988884208DCA888401CA880A879D1
:102E2000022802D1A86A401CA8620AF1010AC24520
:102E3000B4DB2D68002DA0D1B56A20E018A905F1FA
:102E4000080002F097FEC8B911E0A988A88B081AFB
:102E5000A88005F1200205F10801304600F056FC7B
:102E60008246BAF1000F01D050463BE600BFA98868
:102E7000A88B814202DBE87F0028E6D12D68002D77
:102E8000DCD100202EE6000000630008992E000827
:102E90000CFCFF7FF46200082DE9F04104460D466A
:102EA0001646274633462A46D7E9000100F011F8B6
:102EB000BDE8F0812DE9F04104460D46174626464F
:102EC000284603F0CFF83168084430600020BDE8A0
:102ED000F0812DE9F04F87B082460D46164699469F
:102EE000304603F0BFF8074668683844696988428D
:102EF00004D96FF01B0007B0BDE8F08F26F0004149
:102F0000AA6881EA020003F02FF90690042306AABA
:102F10002946504600F032F904460CB12046EAE753
:102F200006F0004048B93B1F4A462946504600F08B
:102F300025F9044664B32046DDE7CB464FF0000890
:102F400022E0012205ABDBF804004044DBF800106E
:102F5000CDE90232CDE90010381FA0EB080352463C
:102F600000215046FFF719FA04460CB12046C2E78B
:102F7000012305AA2946504600F000F904460CB189
:102F80002046B8E708F10108381F4045D9D800BFEE
:102F900026F00040A8600020ADE700002DE9F04FCA
:102FA0008BB007460C46BA6E9169626802F1080060
:102FB000FFF73DF8054600200A9009907BE0606825
:102FC000001D08900899681A40F2FE3102F0A1FD38
:102FD000089900EB010BAB4505D2A5F10801584655
:102FE00002F097FD83464FF0FF300790042107AAB7
:102FF00020680B46CDE901B2039100903A460021CA
:103000003846FFF7CAF98146B9F1000F06D009F139
:10301000540018B148460BB0BDE8F08F079802F095
:1030200017F8C043C00F0690069800F5A0605249FB
:1030300041EA00500899ABEB010108430790A168F1
:10304000079A81EA020003F08FF80490042204A991
:10305000E068FFF797FAE060E06803F08BF805900E
:10306000082204ABD4E900018DE80B000392002391
:103070003A4607F110013846FFF738F98146B9F1B1
:10308000000F01D04846C6E70A9820B96068001DC5
:103090000A90E0680990079803F005F8001D616840
:1030A00008446060DDE9060181EAC070A0604FF06D
:1030B000FF30E06000BF6068A84280D300233A463A
:1030C00007F110013846FFF731FA8246BAF1000FD6
:1030D00001D050469FE72669DDF8288047E04FF091
:1030E000FF3BB14626E00A98814505D10998834502
:1030F00002D06FF053008EE7012108AA2068CDE9C5
:1031000001920391009008F10400A0EB09033A46F4
:1031100000213846FFF741F98246BAF1000F01D08D
:10312000504678E7012208A95846FFF72BFA834654
:1031300009F1010908F104008145D4D3BBF1000F66
:1031400002D06FF0530066E7A5EB080040F2FE31B5
:1031500002F0DFFC00EB0806AE4205D2A5F1080143
:10316000304602F0D6FC064606F1040800BFAE4227
:10317000B5D300204FE7000000FC0F002DE9FF4110
:1031800006460C4617461D46D4E900010023324688
:103190008DE88300039506F110013046FFF7A6F88D
:1031A0008046B8F1000F03D0404604B0BDE8F0817E
:1031B0002A463946E068FFF7E5F9E0606068284490
:1031C00060600020F1E700002DE9F04F9BB005465C
:1031D0000C4692469B46DDE9257820681990606888
:1031E0001A900020189017905EE00020169016A903
:1031F000EF4A784200B2CDE90580CDE907210020F1
:10320000EC49431E0246CDE900ABCDE9030702912C
:103210002846249900F0F2FF06461EB130461BB046
:10322000BDE8F08FA8EB0700FF2817DAAA6E9169B6
:10323000926C12B1AA6E926C01E0AA6ED26950082B
:10324000FEF7F5FE1590A96EC969A1F12400159944
:1032500002F05FFC1699884200D329E0A8EB070032
:1032600000EBD071C1F34F0907EB090080B224993C
:103270005B465246CDE9010800912146284600F000
:103280007DFF06465EB106F11C0030B9A86EC0692C
:1032900024381699884200D30AE03046BFE707EB8E
:1032A00009001FFA80F800BFA8EB070001289CDC8A
:1032B00000BFA068401CA060A86E406A002843DDE3
:1032C000A168A86E406A401C40F00100B1FBF0F21A
:1032D00000FB1210002837D1B74903C9CDE9150109
:1032E00015A9204602F046FC00282AD1284602F003
:1032F0000DF98146B9F1000F01DA48468FE7A86E53
:10330000006AB9EB500F1BD2ACA000904FF4CD6215
:10331000ABA1B0A0A368FEF7EFFB24985B46524632
:1033200021468DE88101284600F028FF064626B197
:1033300006F11C0008B1304671E706B9B84600BF77
:1033400002E001201790D9E012E118229A490831D1
:103350000CA8FCF7F7FE60680C90A86E806C10B1AA
:10336000A86E806C01E0A86EC069083811902846EC
:103370006168FEF765FF06462EB106F1540000B9FC
:10338000BCE030464BE7A06802F0F4FEA0600423E6
:1033900004F108020CA92846FFF7F0FE0646A068D3
:1033A00001F066FEA0602EB106F1540000B9A5E060
:1033B000304634E70CA8CDE9155015A9914A78425A
:1033C00000B2CDE90580CDE9072100207949431EEF
:1033D0000246CDE900ABCDE90307029128462499C6
:1033E00000F00CFF06462EB106F1540000B985E04E
:1033F000304614E704F1180002F0DCFBE8B904F1F0
:10340000180002F0E7FBE07D00F5C0607E4941EA6C
:10341000005040F0080204F118030CA92846FFF7F9
:1034200058FD064604F1180002F0B9FB2EB106F172
:10343000540000B962E03046F1E6002009900A909D
:103440000B90189848B905F13C0109A802F0B6FAAA
:1034500005F1300109A802F0B1FA05F1480109A807
:1034600002F0ACFA09986FF30900099009AA214605
:10347000284600F00FFD06460EB13046CFE609A8FB
:1034800002F080FA80B909A802F089FA09AB5F4A14
:103490000CA92846FFF71DFD06462EB106F1540083
:1034A00000B92BE03046BAE60CA92846FFF776FDB6
:1034B00006462EB106F1540000B91FE03046AEE6D4
:1034C000204602F082FBA8EB0700A0820D98E06086
:1034D0000E9820610020129013904D4A149007CA54
:1034E00012AB07C3C5E91312A864189828B9D5E927
:1034F0000D12286BC5E91012E8633AE0012018901C
:1035000005F110012846FFF72CF8179840B92BA0B9
:10351000009040F2FE622AA13EA06368FEF7ECFA3A
:103520002549203103C9CDE9150115A9204602F02E
:1035300021FB58B921A0009040F2037220A13EA0C7
:103540006368FEF7D9FA6FF01B0068E6211D284674
:10355000FEF776FD8146B9F1000F06D009F11C0097
:1035600008B9179808B9484659E60020179000BFD7
:10357000EBE600BF1898C0B110A3D4E900101A9A66
:10358000CDE90203CDE9002140F214720CA138A06C
:10359000199BFEF7B1FA224619A9284602F09AF8BB
:1035A00006460EB130463AE600BF002037E600007E
:1035B000B52E000800FC0F40CC620008000000009F
:1035C0002E2E5C6C6974746C6566735C6C66732E0D
:1035D0006300000025733A25643A64656275673AB2
:1035E00020457870616E64696E67207375706572CE
:1035F000626C6F636B20617420726576202575257F
:10360000730A0000992E000800FC0F000CFCFF7FDD
:10361000C062000825733A25643A64656275673AAA
:103620002042616420626C6F636B2061742030788B
:10363000257825730A00000025733A25643A7761DE
:10364000726E3A205375706572626C6F636B2030D6
:1036500078257820686173206265636F6D652075D9
:103660006E7772697461626C6525730A00000000F0
:1036700025733A25643A64656275673A2052656C31
:103680006F636174696E67207B307825782C2030F9
:103690007825787D202D3E207B307825782C2030B1
:1036A0007825787D25730A002DE9FC4106460F46F2
:1036B000144606F148022146304600F0EBFB054671
:1036C00015B12846BDE8FC8104F1180002F082FA29
:1036D000E07D00F5C0600C4941EA005040F0080070
:1036E000009004F11800012301906A4639463046E3
:1036F000FFF7D2F9054604F1180002F050FA0DB1B7
:103700002846DFE70020DDE700FC0F007FB5044618
:103710000D4616460020431ECDE900300290324689
:1037200029460390204600F003F804B070BD000065
:103730002DE9FF4F91B005460C4692464FF0FF3001
:103740001090DAF80000A96E096A884205D2DAF80A
:103750000400A96E096A884204D36FF0530015B0C3
:10376000BDE8F08F00200E900F900026002736E075
:1037700004220EA800EB870000235AF82710CDE999
:103780000013CDE9020213462A4600212846FEF71F
:1037900004FE80460EA951F8270001F069FC0EA92D
:1037A00041F82700B8F1000F04D008F1540008B127
:1037B0004046D4E708F1540181B10EAB53F827100D
:1037C000781C00EBD0735B10A0EB43030DF1380CB9
:1037D0005CF823208B1A002B00DD3E467F1C022F55
:1037E000C6DB304606EBD0714910A6EB41015AF812
:1037F00021102160701C00EBD0714910A0EB410139
:103800005AF821106160304606EBD0714910A6EBE2
:1038100041010EAA52F82110A1600020E0600D9035
:10382000D9E14FF000084FF0FF300C9000200B90D2
:10383000F24903C9CDE9090100200890DDF8409064
:10384000A06802F097FCA060042204F10801501F58
:10385000FEF798FE0790A06801F00AFCA06064E102
:103860000C9802F0FFFB8044042106AA2068CDE9F1
:10387000018203910090A86E2A460021C369284660
:10388000FEF78BFD07463FB107F1540010B9002049
:10389000A0754BE1384662E7042206A90798FEF7B7
:1038A00071FE0790069801F0D3FB0C9948400690F2
:1038B000069802F0EFFB90B90C9802F0FFFBB0F510
:1038C000A06F09D1E068A96E8969B0FBF1F201FB34
:1038D000120008B9012000E00020A07526E106983A
:1038E00002F0C0FB4044A96EC969884202D9002099
:1038F000A0751BE106980C90069802F0DFFBB0F56E
:10390000A06F46D1042205AB08F104002168CDE97F
:103910000232CDE90010A86E2A460021C36928466C
:10392000FEF73BFD07463FB107F1540010B90020F8
:10393000A075FBE0384612E7059801F099FB059069
:1039400007990598814202D00020A075EEE0069804
:1039500002F084FB0C9981EAC0700C90042207A944
:10396000E86AFEF70FFEE862CDF84090069802F094
:1039700079FB4044E0600C9820610B98A082099884
:10398000A0610A99E1610898E0754FF0FF30079057
:10399000CBE04FF0040B20E0012205AB08EB0B015C
:1039A00020688DE80B000392A86E2A460021C369A7
:1039B0002846FEF7F2FC07463FB107F1540010B964
:1039C0000020A0750EE03846C9E6012205A9079837
:1039D000FEF7D8FD07900BF1010B069802F042FBB1
:1039E0005845D9D800BF069802F068FB60B9069820
:1039F00002F043FB0B9988425ADB069802F03DFB2C
:103A0000401C80B20B9053E0069802F057FBB0F5D3
:103A1000806F25D1069802F04AFB0B99084480B2CA
:103A20000B90774909EA01007649084306998842D4
:103A300002D149F000493BE009F10100A0B306982A
:103A400002F01BFB8346484602F017FB83452FDC40
:103A5000069802F02CFB002141EA8020814427E0F7
:103A6000069802F02BFBB0F5C06F21D1069802F04A
:103A7000F5FA00F001000890082209AB08F10400F3
:103A80002168CDE90232CDE90010A86E2A46002156
:103A9000C3692846FEF781FC074637B107F1540099
:103AA00018B90020A07541E002E009A802F077F8FB
:103AB0000699149801401E9A1040814234D1206822
:103AC000049008F10400059004AADDE9203006996D
:103AD000984703900398002807DA0398543010B9E8
:103AE0000020A07522E0039839E6039810B9DDF8AC
:103AF000189018E044490698084009EA01018842F4
:103B000002D14FF0FF390EE0039802280BD106983E
:103B100002F0B3FA8346484602F0AFFA834502DC6E
:103B2000069840F0004900BF00BF99E600BFE0687A
:103B3000A8B3214605F13C0001F00AFFE8B1E86BAB
:103B400002F09BFA0746109802F097FA874204D1D8
:103B5000109840F0004010900FE01098401C60B1A9
:103B6000E86B02F08AFA0746109802F086FA87425C
:103B700003DA1098A0F5806010901F9848B1109853
:103B800002F07BFA0746A18A01F0C3FF81B21F98B9
:103B90000180109802F07EFA10B11098DFE50AE07B
:103BA000109802F06AFAA18A884202DA6FF00100E6
:103BB000D5E50020D3E5204602F007F8701C00EBA5
:103BC000D0714910A0EB41010EAA52F82110A1605A
:103BD0000D98401C0D900D980228FFF622AE0BA107
:103BE0006068CDE9000140F22E4209A10DA02368D2
:103BF000FDF782FF6FF05300B1E50000B8620008E6
:103C000000FC0F000000F04F00FCFF7F00000000F0
:103C10002E2E5C6C6974746C6566735C6C66732EB6
:103C20006300000025733A25643A6572726F723A38
:103C300020436F72727570746564206469722070BD
:103C4000616972206174207B307825782C2030786F
:103C500025787D25730A00002DE9FF4F89B0804645
:103C60000E469346DBF800500C9818B140F2FF3135
:103C70000C980180DFF86491D8F82000B061D8F882
:103C80002410F161A8E000BF55A12846FCF79CFA7A
:103C9000054453A12846FCF7A5FA0446012C05D19A
:103CA000012250A12846FCF782FA38B1022C07D134
:103CB00002224DA12846FCF77AFA08B92544E3E729
:103CC00005EB040A012008901FE045A15046FCF7CF
:103CD0007BFA824442A15046FCF784FA074607B9B2
:103CE00014E0022F0DD102223FA15046FCF75FFAEB
:103CF00038B90898401E0890089828B90AEB0705BB
:103D0000C2E70898401C0890BA44DEE700BF287854
:103D100018B948460DB0BDE8F08FCBF800504846C2
:103D200002F0D1F9022802D06FF01300F2E7484602
:103D300002F0A3F940F2FF3188421DD0484602F05C
:103D40009CF94FF0005141EA802040F008000690B5
:103D500006F118000090254A31464046069B00F0C7
:103D600082F807900798002801DA0798D2E706F151
:103D7000180001F014FF00BF2AE02F212846FCF7AD
:103D800005FA08B90C9800E00020CDE905850794F4
:103D9000049005A9164A04984FF0F043CDE900407D
:103DA000CDE9022106F1180231464046FFF7C0FC7A
:103DB0008146B9F1000F01DA4846ABE7B9F1000FCF
:103DC00000D006E0F07D10B96FF00100A2E700BF5F
:103DD000D3E700BF254400BF55E7000000FC2F00DB
:103DE0002F0000002E0000002E2E000000FC0F709F
:103DF000F53D00082DE9FF5F04460F4616462546AF
:103E0000D5F80080B146384602F04DF90390A86815
:103E1000039901F07EFE82466868D9E90012534694
:103E2000CDE9020ACDE90012424600214046FEF7E4
:103E3000CDF98346BBF1000F03D0584604B0BDE86E
:103E4000F09F384602F02FF9A968884209D0384619
:103E500002F029F9A968884201D90120EEE7022081
:103E6000ECE70020EAE72DE9FE4305460E4617463B
:103E70001C46DDF82880204602F015F98146002016
:103E800023463A4631468DE80103284600F0CAF839
:103E9000BDE8FE832DE9FF4107468846164601A886
:103EA000134B134A0C3A414600903846FFF7DBFFAC
:103EB0000546002D05DAA81C18B1284604B0BDE857
:103EC000F081A81C88B101AC206801F0D1F8206015
:103ED000606801F0CDF86060A06801F0C9F8A060EA
:103EE00000BF01A9304601F069FD0020E6E70000AF
:103EF0000C00F07F2DE9FF4F83B0804616461C462C
:103F0000DDF85490139DDDF850A005EB0900D8F8BA
:103F10006810C969884204D96FF0530007B0BDE842
:103F2000F08F79E04F462EB33068801C10BBD6E985
:103F300001010844A8421DD97068A84214D8D6E9E6
:103F40000120AA1A811A384601F0E3FD074672687B
:103F5000AA1AF06881183A465046FCF7F3F8BA44BA
:103F60003D44A9EB070957E07068411B384601F052
:103F7000D0FD07462068801C10BBD4E9010108442D
:103F8000A8421DD96068A84214D8D4E90120AA1A11
:103F9000811A384601F0BDFD07466268AA1AE0683A
:103FA00081183A465046FCF7CDF8BA443D44A9EB97
:103FB000070931E06068411B384601F0AAFD074659
:103FC0006FF001002060D8F8680041692846FEF7CC
:103FD00027F86060D8F868205169109AA818FEF791
:103FE00026F80290D8F86800816A029801F091FDE5
:103FF000A060D4E902026168CDE900120290404657
:10400000DDE91123049900F00DF88346BBF1000FA0
:1040100001DA584682E700BFB9F1000F82D10020D3
:104020007CE700002DE9F04F87B081460D469246AF
:104030001E46D5F80CB0286906900024294609F1DF
:104040003C0001F085FC78B1504602F016F858B1FA
:10405000D9F83C0002F011F80746304602F00DF89E
:10406000874201DCA4F580647AE0069801F0FAFF4B
:10407000ABEB000B069F042106AA28680B46CDE98E
:1040800001B2039100904A4600214846FEF785F9A7
:104090000590059818B1059807B0BDE8F08F06980F
:1040A00000F0D6FF784020F000400690504601F026
:1040B000E4FFF8B1384602F001F8B0F5806F19D18D
:1040C000384601F0DAFF8046301B01F0D6FF80450C
:1040D00010DC301B2749084027490843B84202D169
:1040E0006FF00100D8E7384601F0E1FF002141EA16
:1040F000802004440AEA0701301B00EA0A008142DA
:104100002DD1384601F0BDFF10B16FF00100C3E7BB
:10411000384601F0C8FF0490129901F0FAFC80467D
:104120000BF10401DDE9102011442A684346CDE972
:104130000208CDE900214A4600214846FEF72DF944
:104140000590059808B10598A6E7129AA2EB080118
:10415000119A02EB0800FCF70EF838199CE700BF33
:10416000069801F07FFF001D58457FF67EAF6FF087
:10417000010091E700FC0F00000010402DE9F04F16
:104180008BB005460C4690469946DDE9157BDDF877
:1041900050A02846FDF7ECFF03A92846FEF726FCB1
:1041A00006461EB130460BB0BDE8F08FE07D8DF8BD
:1041B0002300A0690990E1690A914B46424603A990
:1041C0002846CDE9017BCDF800A0FEF7FDFF0646AD
:1041D0000EB13046E7E70398A0610499E161012040
:1041E000E07505F12001204601F0C4FC20B91FB99B
:1041F00003982862049969620020D4E72DE9FF4FF3
:104200008FB00F4615469946DDF88CA0DDF870801A
:10421000EFE0484601F026FF2844F968884226D29C
:10422000484601F01FFF054404210EAA38680B46DA
:10423000CDE901520391009000210F9A1046FEF73C
:10424000ACF806461EB1304613B0BDE8F08F0E98AC
:1042500000F0FEFE80EA090040F000400E90386851
:104260000C90281D0D900CACDDF838900FE01D98D7
:1042700000280ADDD8F800000E90D8F8044008F1B4
:1042800008081D98401E1D9001E00020DCE75948F9
:104290000B901E990B9808400E9901401E9A0B989E
:1042A00010401F9A1040814200D0A2E01E9801F0F9
:1042B000E4FE40B30EA8504900220592CDE9062144
:1042C00008901D98CDE9010203924B46CDF800807D
:1042D00004922A4639460F98FFF790FF0646002EB3
:1042E00001DA3046B0E706B183E00E9801F0C5FE72
:1042F0002099884205DB0E9801F0BFFE2199884283
:1043000000DB76E000BF0E9801F0DDFE00286FD0E4
:104310000E9801F0D8FE40F20111884228D10E9883
:1043200001F0C1FE86B20E9801F0A7FE0A900A992C
:104330008A1B2299114409B2721C92B22498CDE9C9
:10434000061A059208904FF000502C490022CDE942
:104350000121531E2146CDE9030600920F98FFF775
:104360004DFF8346BBF1000F01D058466CE73FE09C
:104370000E9801F0A8FEB0F5817F2BD1002623E036
:10438000A3460E9801F079FE22990844810206EBBB
:1043900046001BF8200000F5407041EA005006EB93
:1043A00046010BEB810189680843099006EB460042
:1043B0000BEB8000426809992498D0470A900A982C
:1043C00008B10A9840E7761C0E9801F06CFEB042E6
:1043D000D6D80DE00022229842EA80200E9A811859
:1043E00022462498D04706460EB130462CE700BF3F
:1043F00000BF0EE70000F07F0144000800FC0F60E2
:104400002DE9F04706460D469046344605F08050AB
:1044100008B11A4800E01A48074607EA0500216873
:10442000394088420DD0206801F02BFE48B913486E
:1044300005EA0001134A20681040134A10438142E4
:1044400002D10120BDE8F087284601F037FEB0F523
:10445000806F11D1284601F010FE8146206801F0DE
:104460000CFE814508DC284601F021FE002141EACE
:1044700080202168084420600020E3E700FCFF7FE3
:1044800000FC0F7000FC0F000000F04F70B50546F7
:104490000E4600240CB1204670BD3146284600F07F
:1044A000E3F804462046F7E7F0B597B005460C461A
:1044B000206B00F4802060B1206B00F4801020B9E4
:1044C00004F140012846FEF74CF8206B20F48020D0
:1044D0002063206B00F40030002879D0676B206BDC
:1044E00000F48010002860D154223A4902A8FBF75A
:1044F00029FEA06A0C90E16A0D91606B0F9095E81F
:104500000F0012AE0FC629462846FEF72AF822E011
:10451000012301AA02A9284600F02AFA0646002E25
:1045200002DA304617B0F0BD012301AA2146284621
:1045300000F074FB0646002E01DA3046F2E72868E8
:10454000401C38B112A92846FEF70BF82946284628
:10455000FEF707F800BF616BE06A8142D8D321E023
:1045600001232A4604F140012846FDF773FE064662
:104570002EB106F1540000B902E03046D2E712E055
:1045800015A0009040F6E62214A119A0A36BFDF738
:10459000B3FA2146284600F077FC06460EB13046B5
:1045A000C0E700BFDCE700BF04E0E16A606B01F038
:1045B000A9FA6063A06BA062616BE162206B20F4DA
:1045C00000302063206B40F480302063676300BFBD
:1045D0000020A7E734630008000000002E2E5C6C6A
:1045E0006974746C6566735C6C66732E630000009E
:1045F00025733A25643A64656275673A20426164BE
:1046000020626C6F636B206174203078257825738D
:104610000A0000002DE9F04105460E46174698466F
:10462000002414B12046BDE8F08143463A463146A5
:10463000284600F02DF804462046F4E770B50646FB
:104640000C46606BE0633046FDF792FD2146304634
:1046500000F01AFC05460DB1284670BD206B20F411
:10466000801020630020F8E770B505460C4621460F
:10467000284600F06FFA06462146284601F054FA13
:10468000206D006810B9E06C00BF00BF304670BDFF
:104690002DE9F84304460D4616461F4605483B469D
:1046A000324629460090204600F006F880464046F3
:1046B000BDE8F883286300082DE9FF4F87B08146E5
:1046C0000C461F46DDF850A007F0020002280BD16F
:1046D000484600F035FE8046B8F1000F03D0404652
:1046E0000BB0BDE8F08F00BFC4F850A027630020D6
:1046F0006063E0630021E164231D09AA191D484697
:10470000FFF7AAFA0646002E08DAB01C20B9A088E6
:1047100040F2FF31884201D1354615E10120A071F8
:104720002146484601F0FCF9B01CA0BB07F480709C
:1047300010B96FF0010507E10998FBF731FD8046DC
:10474000D9F86C00404502D26FF02305FCE0182137
:1047500001A8FBF710FDA088804941EA8020019064
:10476000A0884FF4801141EA802040EA08000390BD
:1047700009990491A0887A4941EA80200323059091
:1047800001AA04F108014846FEF786F905461DB165
:104790006FF02305D8E001E0714E32E007F40070BD
:1047A00010B16FF01005CFE0304601F08CFC01280D
:1047B00002D06FF01405C7E007F4806040B1A08814
:1047C000674941EA8026206B40F48030206318E07E
:1047D00004F128000090A0884FF0005141EA8020A9
:1047E00040F008035F4A04F108014846FFF73BFB2D
:1047F0000646002E01DA3546A6E004F12800FEF751
:1048000020F84FF000084BE094F8300000F0010071
:1048100060B3206D406808EB480100EB8100406800
:104820000090206D406808EB480110F8210000F569
:1048300040700005A18840EA8120216D496808EB9D
:10484000480201EB8201896840EA0103464A04F10B
:1048500008014846FFF707FB8346BBF1000F04DA67
:104860000BF1020008B15D466EE000BF94F8300025
:1048700000F00200022811D1206D406808EB4801C9
:1048800000EB81008068D9F87410884202D96FF07B
:104890001B0559E0206B40F48030206308F10108CB
:1048A000206D80684045AFD8206D006818B1206D3C
:1048B0000168E16409E0D9F86810886A2B49E1646D
:1048C000E06C10B96FF00B053EE004F14001484682
:1048D000FDF74BFE304601F0F6FB40F20121884225
:1048E00030D16FF00100A062304601F0DCFBE062E5
:1048F000206B40F480102063A06A20640021616472
:10490000D9F86800816AA164E06AD8B140F2FE314A
:10491000A06C01F0FEF8A1884FF0005242EA81211C
:1049200040EA010BE06C5B460E4A04F1080100907E
:104930004846FFF798FA8046B8F1000F01DA45467D
:1049400002E000BF0020CBE6206B40F40020206393
:1049500021464846FFF788FE2846C1E60000104081
:104960000000102000FC0F7000FCFF7FC000002042
:104970002DE9F04F87B006460C4692461F46D046BA
:10498000B946206B00F4003050B121463046FFF7A5
:104990008BFD05461DB1284607B0BDE8F08F00BF6E
:1049A000616BE06A814201D30020F5E7626BE06A47
:1049B000811A384601F0ADF80746B94672E0206B1F
:1049C00000F4802020B1E06BB16EC969884222D129
:1049D000206B00F48010A8B904F13C02101F636B37
:1049E000E16ACDE90013CDE90202121D0021304633
:1049F000A36AFDF7D3FE8346BBF1000F01D05846F2
:104A0000CAE704E06FF00100A063606BE063206B15
:104A100040F480202063B06EC069E26B811A484682
:104A200001F077F80546206B00F48010E0B1A08813
:104A30001F4A42EA8020E16BCDE90485CDE90201FD
:104A40001C49B06EC06904F140030022CDE90001A9
:104A500004F108013046FFF74DFA8346BBF1000F21
:104A600001D0584698E713E0D4E90E018DE8030120
:104A70000395B06E04F140020021C3693046FDF792
:104A80008CFC8346BBF1000F01D0584684E700BF81
:104A9000606B28446063E06B2844E063A844A9EBA2
:104AA000050900BFB9F1000F89D1384674E700004D
:104AB0000000102000FCF7FF70B505460E460023ED
:104AC0001A463146284600F007F80446002C01DA61
:104AD000204670BD0020FCE72DE9F04781460C46DA
:104AE00015461E46676B0EB92F460BE0012E02D10C
:104AF000606B471906E0022E04D12146484600F0BB
:104B00001BF84719D9F87000B84203D26FF01500AE
:104B1000BDE8F087606BB84201D13846F8E721461E
:104B20004846FFF7C1FC8046B8F1000F01D040466F
:104B3000EEE767633846EBE770B505460C46206B39
:104B400000F4003020B1E16A606B00F0DBFF70BD63
:104B5000E06AFCE72DE9F04387B081460C46206B04
:104B600000F4002018B1002007B0BDE8F083214612
:104B70004846FFF799FC05462DB1206B40F4002014
:104B800020632846F0E7206B00F48030002843D0F3
:104B900004F1080001F00EF800283DD1206B00F46C
:104BA000801028B140F20126E76CD4F82C800BE08D
:104BB00040F20226D4E90A01CDE9010101A8FDF77E
:104BC0006FFE01AF4FF008083005A18840EA812050
:104BD00040EA0800CDE90307A0884FF0815141EA7F
:104BE0008020216D896808430590206D416802236B
:104BF000069103AA04F108014846FDF74DFF05465A
:104C00002DB1206B40F4002020632846ACE7206BD8
:104C100020F48030206300BF0020A5E72DE9F04F8D
:104C200085B005460C4692461F46CDF810A0B84602
:104C3000206B00F4802050B121462846FFF734FC59
:104C400006461EB1304605B0BDE8F08F00BF208E8D
:104C500000F4006028B1616BE06A814201D2E06A31
:104C60006063606B3844296F884202D96FF01A0084
:104C7000E9E7206B00F40030D0B9616BE06A814253
:104C800016D9D4F83490E06A60630DE000200390F8
:104C9000012303AA21462846FFF7C0FF0646002E3F
:104CA00001DA3046CFE700BF606B4845EED300BF66
:104CB000206B00F4801040B3626B02EB0800E16AE5
:104CC00000F020FF8146AA6E926C12B1AA6E926C1F
:104CD00001E0AA6ED269D108AA6E906A00F019FFAD
:104CE0000646314640F2FE3000F013FF81450CD9F4
:104CF00021462846FFF7A2FC06462EB1206B40F461
:104D00000020206330469EE700BF9EE0206B00F449
:104D1000003020B1E06BA96EC96988424FD1206B89
:104D200000F48010F0BB206B00F4003008BB606B17
:104D3000F8B104F13C010A1F606B401EE36ACDE943
:104D40000030CDE902210A1D00212846A36AFDF7A3
:104D500025FD8346BBF1000F05D0206B40F40020F9
:104D6000206358466FE704F140012846FDF7FDFB3C
:104D700000BF2846FDF7FCF904F13C00011F626BFF
:104D8000CDE9002102902A46011D2846A36BFDF7BC
:104D900021FC8146B9F1000F07D0206B40F40020C0
:104DA000206300E002E048464DE704E06FF00100B8
:104DB000A063606BE063206B40F400302063A86E5A
:104DC000C069E26B811A404600F0A3FE06462BE064
:104DD0000498D4E90E120123CDE90206CDE90012B0
:104DE0002A4604F140012846FDF780FA8146B9F1D0
:104DF000000F09D009F1540000B906E0206B40F41F
:104E00000020206348461EE70FE02146284600F0B8
:104E10003BF88146B9F1000F05D0206B40F400202B
:104E2000206348460FE700BFD2E700BF606B304405
:104E30006063E06B3044E063049830440490A8EB76
:104E400006082846FDF794F900BFB8F1000F7FF47B
:104E50005DAF206B20F4002020633846F3E62DE997
:104E6000F04705460E4617469846002414B12046E2
:104E7000BDE8F08743463A4631462846FFF778FDBD
:104E800081464846F4E70000F0B589B005460C4677
:104E90008AE008A92846FDF7D3F8064616B1304641
:104EA00009B0F0BD28460899FDF7CAF906462EB1AB
:104EB00006F1540000B968E03046F1E7002748E009
:104EC000206B00F48010D0B1012107AAA088374BD5
:104ED00043EA8020CDE90372059102903449E06BEA
:104EE000C01B04F140030022CDE9000104F10801D8
:104EF0002846FEF7FFFF0646A6B13046D0E701215F
:104F000007AAA06BCDE9017203910090E06BC31B6F
:104F10002A4604F140012846FDF73FFA06460EB145
:104F20003046BDE7012007A9089A0346CDE90027CE
:104F3000CDE902102A4605F110012846FDF7D6F901
:104F400006462EB106F1540000B91EE03046A7E730
:104F50007F1CE06BB842B3D8AB6E9A6AE969E06C2B
:104F6000FBF7F0F82869206469696164A969A164A4
:104F700005F110012846FDF7F8FA0898A063206BA8
:104F800040F40030206300208AE70AA0009040F639
:104F9000972209A10DA0089BFCF7AEFD05F11001B9
:104FA0002846FDF7DEFA00BF73E70000000010207E
:104FB00000FCF7FF000000002E2E5C6C6974746C1E
:104FC0006566735C6C66732E6300000025733A257A
:104FD000643A64656275673A2042616420626C6F6E
:104FE000636B206174203078257825730A000000F7
:104FF00070B505460E4600240CB1204670BD314602
:105000002846FFF759FD04462046F7E72DE9F0470B
:1050100005460E4617469846002414B12046BDE8C2
:10502000F08743463A4631462846FFF7F7FD81466A
:105030004846F4E770B505460E4600240CB12046FC
:1050400070BD3146284600F0D7FD04462046F7E7FC
:1050500001B59DF8000000069DF8011040EA0140EE
:105060009DF8021040EA01209DF80310084308BD96
:1050700001B59DF800009DF8011040EA01209DF85F
:10508000021040EA01409DF8031040EA016008BDAB
:10509000F0B58DB0044604F13C0000F04FFC10B9AF
:1050A00000200DB0F0BDE06B00F0E7FF074619A14E
:1050B000606CCDE90171009041F2190216A11BA0AC
:1050C000236CFCF719FD04F1400203A92046FEF70A
:1050D0001DFB05460DB12846E3E7E06B00F0CDFF70
:1050E0000646002240F2FF31204600F0DBF90020A6
:1050F0000B900C90194840EA862001230B900BAAD4
:1051000003A92046FDF7C8FC05460DB12846C8E7AF
:105110000020C6E7000000002E2E5C6C6974746CE1
:105120006566735C6C66732E6300000025733A2518
:10513000643A64656275673A20466978696E6720EB
:105140006D6F7665207B307825782C203078257837
:105150007D203078257825730A0000000000F04F8C
:10516000F0B5A1B0064606F1300000F001FC10B920
:10517000002021B0F0BD20224E4919A8FAF7E2FF25
:1051800086E01FAA11A93046FEF7C0FA05460DB108
:105190002846EEE79DF87B00002873D109AA1FA9D5
:1051A000304600F0DFF80446002C03DAA01C08B1FA
:1051B0002046DEE7A01CA8B93FA119A8C069CDE927
:1051C000000141F24E023DA141A01F9BFCF794FC5F
:1051D00011AA19A93046FEF767FA05460DB128460F
:1051E000C7E755E007A82346444A09A9009030467E
:1051F000FEF739FE0746002F01DA3846B9E707A85F
:1052000000F0CDFC1FA807990268914203D10899CC
:105210004268914207D007994268914205D10899A6
:105220000268914201D1012100E00021002928D12A
:1052300021A319AADDE90710D269CDE90203CDE95E
:10524000002141F264021DA12DA01F9BFCF754FC1C
:1052500007A800F0BFFC1749203103C9CDE90501BB
:1052600007A80123069005AA19A93046FDF714FCEA
:10527000054607A800F093FC15B1284679E701E040
:1052800006E000BF202211A919A8FAF75BFF00BFB2
:105290001FA800F08FFC00283FF473AF00BF306BF5
:1052A00000F001FF404244B22146304600F01EF9B2
:1052B0005FE7000030640008000000002E2E5C6CE8
:1052C0006974746C6566735C6C66732E63000000B1
:1052D00025733A25643A64656275673A20466978B1
:1052E000696E67206F727068616E207B30782578F8
:1052F0002C20307825787D25730A000000FCFF7F84
:1053000025733A25643A64656275673A2046697880
:10531000696E672068616C662D6F727068616E20BF
:105320007B307825782C20307825787D202D3E2004
:105330007B307825782C20307825787D25730A00FD
:1053400070B505462846FFF7A3FE04460CB120467B
:1053500070BD2846FFF704FF04460CB12046F7E76E
:105360000020F5E72DE9F04188B006460F461446C7
:105370000020A0610121E161804626E0B06E006A54
:10538000B8EB500F04D36FF0530008B0BDE8F081C4
:1053900008F101080596386806907968079105A814
:1053A0000E4900220E4BCDE90032CDE902100D4B23
:1053B00004F1180221463046FEF7BAF905461DB140
:1053C000A81C08B12846E0E700BF04F1180000F06F
:1053D000F1FB0028D2D06FF00100D6E7E9530008B6
:1053E00008000020FF03F07F2DE9F04786B0064655
:1053F0008A46144637463D68A046082204ABD8E9E1
:1054000000018DE80B000392A86E2A4605F11001F9
:10541000C3692846FCF7C1FF8146B9F1000F03D0EC
:10542000484606B0BDE8F08704A800F0B8FB391D77
:1054300004A800F09FFB08B10120F2E70020F0E78C
:105440002DE9F0410646884614460020A06101215E
:10545000E16100271CE0B06E006AB7EB500F03D388
:105460006FF05300BDE8F0817F1C414604F1180045
:1054700000F080FB08B90020F4E704F1180221468F
:105480003046FEF743F905460DB12846EAE700BF6E
:1054900004F1180000F08EFB0028DCD06FF0010052
:1054A000E0E7000010B50F4C036B234040F2FF34DF
:1054B000A14203D00C4C44EA812400E000242343A1
:1054C000036340F2FF33994201D0136800E00023E8
:1054D000436340F2FF33994201D0546800E0002456
:1054E000846310BDFF0300800000F04F70B50446D8
:1054F0000D46206B2844206304F1300000F038FA98
:10550000216B60F3DF712163002070BD38B5054663
:105510000020009000236A460449284600F008F85D
:1055200004460CB1204638BD0098FCE72D59000810
:105530002DE9FF4F8DB007460D46164620226349E0
:1055400005A8FAF7FFFD4FF0000A7BE0B86E006A8D
:10555000BAEB500F04D36FF0530011B0BDE8F08FD9
:105560000AF1010A4FF000080CE00BA850F82810CF
:105570003046A8478146B9F1000F01D04846ECE714
:1055800008F10108B8F1020FEFDB0BAA05A93846B4
:10559000FEF7BCF804460CB12046DEE74FF00008E9
:1055A0004BE003A800904FF0005040EA882040F004
:1055B0000803474A05A93846FEF755FC8146B9F16C
:1055C000000F05DA09F1020000B932E04846C4E7ED
:1055D00003A8FDF736F9484600F075FD40F20221B8
:1055E00088420CD104988DE861003A460021384683
:1055F000039BFDF760F90446D4B12046ADE710984F
:10560000B0B1484600F05FFDB0F5007F10D14FF01B
:10561000000B0AE003A850F82B103046A8470446B8
:105620000CB1204699E70BF1010BBBF1020FF1DB46
:1056300000BF08F101001FFA80F8BDF828004045BE
:10564000AFDC00BF0BA800F0B5FA00283FF47EAF36
:10565000BC6A37E0A079012800D032E0206B00F46A
:105660008030A0B1206B00F4801080B9E06A8DE832
:1056700061003A4604F140013846A36AFDF71BF980
:105680008046B8F1000F01D0404666E700BF206BAE
:1056900000F40030A0B1206B00F4801080B9606B82
:1056A0008DE861003A4604F140013846A36BFDF7EE
:1056B00002F98046B8F1000F01D040464DE700BF27
:1056C00000BF2468002CC5D1002046E71064000804
:1056D00000FC0F702DE9F04790B005468A4614464D
:1056E00005F12001504600F045FA18B920682862FB
:1056F00061686962AE6A17E006F10801504600F081
:1057000039FA18B92068B0606168F160B079022890
:1057100009D106F12C01504600F02CFA18B9206886
:10572000F062616831633668002EE5D108AA5146FF
:105730002846FFF717FE0746002F05DAB81C18B1F8
:10574000384610B0BDE8F087B81C00285ED00121B3
:105750002846FFF7CBFE8146B9F1000F01D048463D
:10576000EFE740F2FF3608A905F1300000F0F0F84D
:1057700000281CD0286B00F080FC064653A1099835
:10578000CDE9016100904FF47C6251A155A0089BC6
:10579000FCF7B2F9002240F2FF312846FFF782FE03
:1057A000384600F06AFCB04201DDA7F5806720466C
:1057B00000F010FA0020049005900690079040F247
:1057C000FF30864203D0574840EA862000E00020A0
:1057D0000223CDE90674049004AA08A92846FDF71F
:1057E0005BF98146204600F0DAF9B9F1000F01D0EB
:1057F0004846A6E74FF0FF312846FFF777FE81467F
:10580000B9F1000F01D048469BE700BF08AA5146F6
:105810002846FFF715FE8046B8F1000F04D008F1C6
:10582000020008B140468CE708F1020000284AD087
:1058300040F2FF3608A905F1300000F089F8A8B160
:10584000286B00F01AFC064620A10998CDE90161F9
:10585000009040F6E7721EA122A0089BFCF74CF9CD
:10586000002240F2FF312846FFF71CFE204600F0E0
:10587000B1F90020049005900690079040F2FF30A7
:10588000864203D0274840EA862000E000200490AA
:105890009DF8370000F5C060234941EA005040F010
:1058A00008000223CDE9060404AA08A92846FDF74A
:1058B000F3F88046204600F072F9B8F1000F01D0ED
:1058C00040463EE700BF00203BE70000000000002C
:1058D0002E2E5C6C6974746C6566735C6C66732EDA
:1058E0006300000025733A25643A64656275673A7F
:1058F00020466978696E67206D6F766520776869E4
:105900006C652072656C6F636174696E67207B30B3
:105910007825782C20307825787D20307825780AF5
:1059200025730A000000F04F00FC0F0002460B46F2
:1059300011460868401C08600020704710B50446F6
:10594000206800F0BBFB08B1012010BD0020FCE77F
:1059500070B504460D46206800F0B0FB30B1294612
:10596000201D00F007F908B9012070BD0020FCE7F8
:1059700010B50446206800F096FB08B1012010BD68
:105980000020FCE70246002105E052F8210008B1A2
:1059900000207047491C0329F7DB0120F9E710B507
:1059A0000446206800F0E6FB2060606800F0E2FB3F
:1059B0006060A06800F0DEFBA06010BD10B502467C
:1059C000002007E052F8203051F82040634042F8B0
:1059D0002030401C0328F5DB10BD000070B58AB0F4
:1059E00004460D46A5660026A06E006B18B1A06E99
:1059F000006BE06008E0A16E886A3E49E160E06803
:105A000010B96FF00B066FE0A06E406B18B1A06E7E
:105A1000416BE16108E0A16E886A3649E161E069A5
:105A200010B96FF00B065FE021462046FCF79DFDA4
:105A300004F110012046FCF798FDA06E806B18B1B0
:105A4000A06E816B616608E0A16EC86A2949616633
:105A5000606E10B96FF00B0646E0A06EC06BE0669A
:105A6000E06E08B9FF20E066A06E006C2067206F32
:105A700010B96FF000402067A06E406C6067606FE7
:105A800010B940F2FE3060674FF0FF3020620146EF
:105A900061620020A062E06207900890164A0990B7
:105AA00007CA07AB07C3C4E91012E06300200490E3
:105AB0000590124A0690D2E900109268CDE90502DD
:105AC000049108460599C4E90D1220630020019055
:105AD00002900B4A039007CA01AB07C3C4E9131233
:105AE000A06400200AB070BD2046FCF739FF3046A4
:105AF000F8E70000C00000208863000894630008F5
:105B0000A063000802468A4201D910467047084641
:105B1000FCE702468A4201D2104670470846FCE77D
:105B2000826A0A6081627047024602F1280007E03B
:105B300003688B4203D103681B68036003E00068BD
:105B40000368002BF4D100BF704770B505460E46C0
:105B500000240CB1204670BD3146284600F0BAF84A
:105B600004462046F7E70146481EB0FA80F0C0F12F
:105B700020007047024610680B6898420DD05068AC
:105B80004B68984209D010684B68984205D050681D
:105B90000B68984201D0012070470020FCE710B547
:105BA00004462068FFF764FA20606068FFF760FA37
:105BB000606010BD01460868401C10B14868401C78
:105BC00008B9012070470020FCE7016842680260C4
:105BD0004160704710B50446206800F0CBFA2060A1
:105BE000606800F0C7FA606010BD10B5044620463A
:105BF000FBF792FF10BD000070B596B004460E464C
:105C0000002531462046FFF7E9FE054615B1284636
:105C100016B070BDA26ED16A606EFAF7ACFA0020C1
:105C20006065A26E116AD26AD000FFF772FFA065AC
:105C30000021E1652046FCF79BFA06A92046FCF707
:105C4000D5FE054605B13EE0182221496846FAF71F
:105C500079FAA06EC0690190A06E006A0290E06EB1
:105C60000390206F0490606F0590684600F0DBF9A8
:105C700018221749183110A8FAF764FACDF854D051
:105C8000032310AA06A92046FCF706FF054605B126
:105C900019E000208DF82E0000231A4606A92046A0
:105CA000FCF7FAFE054605B10DE00949303103C99C
:105CB000CDE90E010EAA06A92046FDF727FD0546EF
:105CC00005B100E000BF2046FCF74AFE28469FE7EA
:105CD000AC6300082DE9F04794B004468A4651466B
:105CE0002046FFF77BFE06461EB1304614B0BDE8E5
:105CF000F087202275490CA8FAF724FA0027A6E0BD
:105D0000A06E006AB7EB500F02D36FF05306D8E0D5
:105D10007F1C6E4A203207CA09AB07C3099409A841
:105D20006B4900226B4BCDE90032CDE902106A4B82
:105D300012AA0CA92046FDF7FBFC0546002D01DA4E
:105D40002E46BEE0002D78D0284600F09AF90028B3
:105D500073D10C9820620D99616203A85F4B5E4A73
:105D60000CA900902046FEF77EF80546002D01DACA
:105D70002E46A6E003A800F03BF94FF6FF7103980A
:105D800001EA104803981FFA80F9B8F1020F02D116
:105D9000B9F1000F0CDD52A0434640F68D6251A1CF
:105DA000CDE9009054A0FBF7A7FE6FF0150688E040
:105DB000069898B10698E16E88420DD948A1E06E28
:105DC000CDE9000140F6966246A155A0069BFBF77F
:105DD00093FE6FF0150674E00698E066079898B198
:105DE0000798216F88420DD93DA1206FCDE90001B0
:105DF00040F6A1623BA156A0079BFBF77DFE6FF02A
:105E000015065EE0079820670898A8B10898616FAA
:105E100088420FD932A1606FCDE9000140F6AC6233
:105E200030A100E009E056A0089BFBF765FE6FF08B
:105E3000150646E00898606700BF04F130020CA91F
:105E40002046FEF727F8064606B13AE000BF12A842
:105E5000FFF7B0FE00283FF453AF04F12000FFF736
:105E6000A9FE10B16FF015062BE004F13000FFF72A
:105E700089FD58B91AA2D4E90D018DE8070040F652
:105E8000C56218A14AA0236BFBF736FE206B00F019
:105E900001F980F00100216B08442063D4E90D1260
:105EA000206BC4E91012E063A16EE06A096AB0FBDE
:105EB000F1F201FB120060652046FCF75DF900205D
:105EC00014E7204600F08EF830460FE7E463000840
:105ED000F53D00080800F00F00FCFF7F18001020BF
:105EE000000000002E2E5C6C6974746C6566735C37
:105EF0006C66732E6300000025733A25643A657260
:105F0000726F723A20496E76616C696420766572B0
:105F100073696F6E207625642E256425730A000050
:105F200025733A25643A6572726F723A20556E7322
:105F30007570706F72746564206E616D655F6D6100
:105F40007820282575203E2025752925730A000014
:105F500025733A25643A6572726F723A20556E73F2
:105F60007570706F727465642066696C655F6D61D1
:105F70007820282575203E2025752925730A0000E4
:105F800025733A25643A6572726F723A20556E73C2
:105F90007570706F7274656420617474725F6D6186
:105FA0007820282575203E2025752925730A0000B4
:105FB00025733A25643A64656275673A20466F75C1
:105FC0006E642070656E64696E67206773746174B7
:105FD0006520307825303878253038782530387885
:105FE00025730A0010B504462046FCF7B9FC10BD25
:105FF00010B504462068FFF73BF820606068FFF7A3
:1060000037F86060A068FFF733F8A060E068FFF73A
:106010002FF8E0602069FFF72BF820616069FFF737
:1060200027F8606110BD10B50446206800F0A2F8A2
:106030002060606800F09EF86060A06800F09AF848
:10604000A060E06800F096F8E060206900F092F847
:106050002061606900F08EF8606110BD0146C1F3F7
:106060000750704770B50446204600F00AF805193D
:10607000284600F018F8001D70BD0146C1F38920C4
:106080007047014641F30900401C08B901207047E0
:106090000020FCE70146012000EBE17008B101207F
:1060A00070470020FCE70146C1F30900704710B5B6
:1060B00004462046FFF7D2FF40B210BD014601F072
:1060C000E040000D70470146C1F30A5070470000E0
:1060D00038B51B491B48FFF738FD04463CB1184949
:1060E0001848FEF7A7FF16491648FFF72EFD0020B7
:1060F000009040F2031314A216491248FEF78AFAE0
:1061000004236A4613490F48FEF7A9FE0098401C75
:10611000009010490B48FEF76BFF04236A460D49B7
:106120000848FEF773FF0B490648FEF7AFF905482C
:1061300000F026F808A00099FBF7DEFC38BD00004F
:106140009864000830010020626F6F745F636F75A0
:106150006E740000A8010020626F6F745F636F753A
:106160006E743A2025640A0010B504462046FEF7F6
:106170006FFF10BD10B504462046FEF779FF10BD35
:1061800070B5054600240CB1204670BD2846FFF7C7
:1061900029FF04462046F8E7FAF74AFAFBF737FAF0
:1061A000FBF71EF9FBF756F9FBF776F90FA0FBF7A3
:1061B000A3FC10A0FBF7A0FC1DA0FBF79DFC0DA00D
:1061C000FBF79AFCFBF732FB2848018828A0FBF775
:1061D00093FC2D4801682DA0FBF78EFCFFF778FF9C
:1061E00002E00120FAF768F8FBE700000D0A0D0A4B
:1061F000000000002B2D2D2D2D2D2D2D2D2D2D2D85
:106200002D2D2D2D2D2D2D2D2D2D2D2D2D2D2D2DBE
:106210002D2D2D2D2D2D2D2D2D2D2D2D2D2D2D2DAE
:106220002D2D2D2D2D2D2D2D2D2D2D2B0D0A00003D
:106230007C20202020202020202020202020202002
:1062400020205732355158582026204C6974746CE0
:106250006546532044656D6F20202020202020209B
:10626000202020202020207C0D0A0000000000209B
:10627000205732355158582049442020203A305870
:106280002530580D0A000000040000202057323548
:106290005158582053495A45203A25640D0A0000A8
:1062A00000000000000000000102030406070809C6
:1062B0000000000001020304FFFFFFFFFFFFFFFFDC
:1062C00000000000000000000000000000000000CE
:1062D000010000000000000000000000FFFFFFFFC1
:1062E000FFFFFFFF000000000000000000000000B2
:1062F000010000000000000000000000000000009D
:10630000000000000000000000000000FFFFFFFF91
:10631000000000000000000008FC0F60000000000A
:1063200008FC0F60000000000000000000000000FA
:10633000000000000000000000000000000000005D
:10634000000000000000000000000000000000004D
:10635000000000000000000000000000000000003D
:10636000000000000100000000000000000000002C
:10637000000000000000000000000000000000001D
:10638000000000000000000000000000000000000D
:1063900000000000000000000000000000000000FD
:1063A00000000000000000000000000000000200EB
:1063B00000000000000000000000000000000000DD
:1063C0000000000000001040000000000800F00F76
:1063D000E464000818001020000000000000000025
:1063E00001000000000000000000000000000000AC
:1063F000000000000000000000000000000000009D
:106400000100000000000000E46400080800000033
:10641000000000000000000000000000000000007C
:10642000000000000000000000000000010000006B
:10643000000000000000000000000000000000005C
:10644000000000000000000100000000010000004A
:1064500008FC0F6000000000000000006410B71D81
:10646000C8206E3BAC30D9269041DC76F4516B6B82
:106470005861B24D3C7105502083B8ED44930FF044
:10648000E8A3D6D68CB361CBB0C2649BD4D2D386FA
:1064900078E20AA01CF2BDBD00000000C12900087E
:1064A0009B2900088B290008E7290008100000003C
:1064B000100000000010000080000000F401000047
:1064C000100000001000000000010020100100205A
:1064D000200100200000000000000000000000007B
:1064E000000000006C6974746C6566730000000045
:1064F000106500080000002024000000801B000838
:106500003465000824000020DC050000901B000812
:10651000000000000000000000000000000000007B
:106520000000000010000000010000000024F40042
:046530000000000067
:04000005080000ED02
:00000001FF
